:08000000803102288731F52F41
:10000A0021000C128C1220000C128C120800F8002D
:10001A008B31E62380310330F6009830890B1328A0
:10002A00F60B13287808F600F7017608F00077082F
:10003A00F1008C31602480310330F6009830890B4E
:10004A002428F60B24288C311A2480310330F60038
:10005A009830890B2E28F60B2E287408F600F70123
:10006A007608F0007708F1008C3160248031033083
:10007A00F6009830890B3F28F60B3F288C311A245A
:10008A0080310330F6009830890B4928F60B49284D
:10009A007508F600F7017608F0007708F1008C3150
:1000AA00602480310330F6009830890B5A28F60B09
:1000BA005A288C311A2480310330F6009830890B83
:1000CA006428F60B64288B31F52380310330F6005F
:1000DA009830890B6E28F60B6E2808002100A400C0
:1000EA00C101C201BF01C0018B31E6238031033057
:1000FA002100A2009730890B8028A20B80280032A9
:10010A00013021002404F0000030F1008C31602419
:10011A00803103302100A2009730890B9228A20B6C
:10012A00922800328C311A248031003A031D9E280D
:10013A009F28F72821008C160130F0000030F100CA
:10014A008C31892480312100A200A3012208A90050
:10015A002308AA000130F0000030F1008C31892414
:10016A0080312100A200A3012208AB002308AC00C1
:10017A000130F0000030F1008C31892480312100F7
:10018A00A200A3012208AD002308AE000130F0004E
:10019A000030F1008C31892480312100A200A301B2
:1001AA002208AF002308B0000130F0000030F1004F
:1001BA008C31892480312100A200A3012208B100D8
:1001CA002308B2000030F000F1008C31892480311C
:1001DA002100A200A3012208B3002308B4008B3136
:1001EA00F523803121002908A300A2012B0822044B
:1001FA00A5002C082304A6002F08A300A201310899
:10020A002204A70032082304A8002508F0002608C3
:10021A00F100F201F30100308E3138268031730883
:10022A002000A7007208A6007108A5007008A400A3
:10023A004330A3002F30A2000030A1000030A000FC
:10024A008531BA25803120002308C1002208C00068
:10025A002108BF002008BE004730BD007F30BC0027
:10026A00FF30BB000030BA00823108228031200002
:10027A003D08DB003C08DA003B08D9003A08D80000
:10028A00C230D7003430D6000030D5000030D40058
:10029A008331B2238031200057082100B8002000A2
:1002AA0056082100B700200055082100B60020009A
:1002BA0054082100B50038082000A700210037089B
:1002CA002000A600210036082000A50021003508DC
:1002DA002000A4004130A3002030A2000030A10079
:1002EA000030A0008531BA25803120002308EB00B8
:1002FA002208EA002108E9002008E8008D31BC251F
:10030A008031200069082100C2002000680821000D
:10031A00C1002708F0002808F100F201F3010030BB
:10032A008E313826803173082000A7007208A60093
:10033A007108A5007008A4004230A300C830A200CA
:10034A000030A1000030A0008531BA25803120009C
:10035A002308C1002208C0002108BF002008BE00EF
:10036A004730BD007F30BC00FF30BB000030BA0010
:10037A0082310822803120003D082100B800200087
:10038A003C082100B70020003B082100B6002000ED
:10039A003A082100B50038082000A70021003708D4
:1003AA002000A600210036082000A50021003508FB
:1003BA002000A4004130A3002030A2000030A10098
:1003CA000030A0008531BA25803120002308EB00D7
:1003DA002208EA002108E9002008E8008D31BC253E
:1003EA008031200069082100C0002000680821002F
:1003FA00BF0003302100A2009730890B022AA20B0A
:10040A00022A00320800200041088039CB00413519
:10041A00D200C01F112A122A132A52145208031991
:10042A00172A182A282A520A031D1C2A1D2A252A95
:10043A000030C1000030C0000030BF000030BE00F4
:10044A00C017C101302A0030C1000030C00000309E
:10045A00BF000030BE003D088039C2004208CB060A
:10046A003D35D300BC1F3A2A3B2A3C2A5314530871
:10047A000319402A412A512A530A031D452A462AAA
:10048A004E2A0030BD000030BC000030BB000030F6
:10049A00BA00BC17BD01592A0030BD000030BC00AB
:1004AA000030BB000030BA003D083C043B043A046B
:1004BA00031D602A612A7A2A0030C1000030C00078
:1004CA000030BF000030BE008030C0047F30C1045D
:1004DA004B08C2004208C1044108BD004008BC00E4
:1004EA003F08BB003E08BA00B12B5208031D7E2A02
:1004FA007F2A882A0030BD000030BC000030BB00D3
:10050A000030BA00B12B5208C200C3014308C5002B
:10051A0053084202C400031CC50344087F3ECC00B2
:10052A000030453DCD004108CA004008C9003F08D7
:10053A00C8003E08C7000030C1000030C0000030CB
:10054A00BF000030BE000030D1000030D0000030C3
:10055A00CF000030CE00D301F02A53080319B62A7F
:10056A00B72AD12A0130C735C80DC90DCA0D890B62
:10057A00B82A0130BE35BF0DC00DC10D890BBF2A87
:10058A00D11FC82AC92ACA2A3E140130CE35CF0D36
:10059A00D00DD10D890BCB2A3D084A02031DDF2A53
:1005AA003C084902031DDF2A3B084802031DDF2AD3
:1005BA003A084702031CE22AE32AEC2A51173A08AE
:1005CA00C7023B08C83B3C08C93B3D08CA3B01304F
:1005DA00C2004208D3071A305302031CF52AF62A2E
:1005EA00B22A4A084904480447040319FD2AFE2A84
:1005FA00172B4E14172B0130BE35BF0DC00DC10D80
:10060A00890B012BD11F0A2B0B2B0C2B3E1401300B
:10061A00CE35CF0DD00DD10D890B0D2BFF30CC0768
:10062A00FF30CD3DC01F1A2B1B2B002BD301D11F2E
:10063A001F2B202B3C2BFF304E05C200FF304F05ED
:10064A00C300FF305005C4007F305105C50045087E
:10065A004404430442040319332B342B372BD301AC
:10066A00D30A3C2B3E1C3A2B3B2B3C2B342B5308F6
:10067A000319402B412B692B0130BE070030BF3DC7
:10068A000030C03D0030C13D411C4C2B4D2B692B25
:10069A003E08C2003F08C3004008C4004108C50024
:1006AA000130C600C537C40CC30CC20CC60B572B8D
:1006BA004508C1004408C0004308BF004208BE0004
:1006CA000130CC070030CD3D4D08803AC200803061
:1006DA004202031D722BFF304C02031C752B762B32
:1006EA00832BFF302000CC000030CD000030C10049
:1006FA000030C0000030BF000030BE0020004D08AE
:10070A00803AC20080304202031D8D2B01304C0218
:10071A000318902B912B9D2B2000CC01CD0100308A
:10072A00C1000030C0000030BF000030BE00CB0165
:10073A0020004C08D200521CA32BA42BA62BC017B6
:10074A00AA2B7F30C2004208C0055236C1004B08AE
:10075A00C2004208C104712A0800200057088039E3
:10076A00E4005735E600D61FBB2BBC2BBD2B661405
:10077A0066080319C12BC22BD22B660A031DC62B8E
:10078A00C72BCF2B0030D7000030D6000030D50061
:10079A000030D400D617D701DA2B0030D70000304A
:1007AA00D6000030D5000030D4005B088039E5005F
:1007BA00650864060319E22BE32BE42B64175B3507
:1007CA00E500DA1FE92BEA2BEB2B65146508031900
:1007DA00EF2BF02B002C650A031DF42BF52BFD2BB8
:1007EA000030DB000030DA000030D9000030D800D9
:1007FA00DA17DB01082C0030DB000030DA000030A9
:10080A00D9000030D8006608650203180D2C0E2C9A
:10081A00342C641F112C122C162C8030DC005C083E
:10082A00E4066608E7006508E6006708E50054087C
:10083A00E7005808D4006708D8005508E7005908A7
:10084A00D5006708D9005608E7005A08D600670895
:10085A00DA005708E7005B08D7006708DB00E70102
:10086A006508DC00DD015D08DF0066085C02DE0069
:10087A00031CDF035F08803AE00080306002031D3A
:10088A00482C1A305E02031C4B2C4C2C7E2C200068
:10089A005708560455045404031D542C562C013091
:1008AA00572C0030E7000030D7000030D600003067
:1008BA00D5000030D4006508E600852C671C662C3C
:1008CA00672C6B2C67360138E7006D2C0310E70C98
:1008DA00541C702C712C722CE7170130DC00D737AE
:1008EA00D60CD50CD40CDC0B742C0130DC005C0863
:1008FA00E607200065086602031C842C852C632CFD
:10090A00641B882C892CBF2C6608031D8D2C8E2C09
:10091A00972C0030D7000030D6000030D5000030C8
:10092A00D400B92D5808D4075908D53D5A08D63DE0
:10093A005B08D73D571CA22CA32C4B2D671CA62C59
:10094A00A72CAB2C67360138E700AD2C0310E70C57
:10095A00541CB02CB12CB22CE7170130DC00D7376D
:10096A00D60CD50CD40CDC0BB42C0130DC005C08A2
:10097A00E6074B2D5708803ADC005B08803A5C0298
:10098A00031DD12C5A085602031DD12C59085502B1
:10099A00031DD12C580854020318D42CD52C0D2D24
:1009AA00FF30DC00FF30DD00FF30DE00FF30DF000B
:1009BA0054085802E0005508593BE10056085A3BD2
:1009CA00E20057085B3BE3006008DC076108DD3D95
:1009DA006208DE3D6308DF3D5F08D7005E08D60087
:1009EA005D08D5005C08D4008030DC005C08E406B1
:1009FA00E709E70A6708031D032D042D152D0130A9
:100A0A00D4070030D53D0030D63D0030D73D152DF6
:100A1A005808D4025908D53B5A08D63B5B08D73B3D
:100A2A005708560455045404031D1C2D1D2D472D2B
:100A3A006708031D212D222D472D0030D7000030D5
:100A4A00D6000030D5000030D400B92D0130D4359D
:100A5A00D50DD60DD70D890B2C2DE71F352D362D2B
:100A6A00372D5414671C3A2D3B2D3E2D0314E70DE8
:100A7A00402D0310E70D66080319442D452D472D17
:100A8A000130E602D61F4A2D4B2D2B2DE501E71F1B
:100A9A004F2D502D5E2D67087F390319552D562D80
:100AAA00592DE501E50A5E2D541C5C2D5D2D5E2D48
:100ABA00562D65080319622D632D902D0130D40738
:100ACA000030D53D0030D63D0030D73D571C6E2D45
:100ADA006F2D902D5408DC005508DD005608DE0005
:100AEA005708DF000130E000DF37DE0CDD0CDC0CDC
:100AFA00E00B792D5F08D7005E08D6005D08D500A7
:100B0A005C08D400660A03198B2D8C2D902D0130B8
:100B1A00DC005C08E607660A0319942D952D9A2DC8
:100B2A006608031D992D9A2DA82D0030D700003094
:100B3A00D6000030D5000030D4006608031DA62D6B
:100B4A00A72DA82DE401661CAB2DAC2DAE2DD61712
:100B5A00B22D7F30DC005C08D6056636D700E41F6C
:100B6A00B72DB82DB92DD7170800200023088039D2
:100B7A00AD002335B300A21FC32DC42DC52D3314D8
:100B8A0033080319C92DCA2DD92D330A031DCE2DB9
:100B9A00CF2DD72D0030A3000030A2000030A100D5
:100BAA000030A000A217E12D0030A3000030A200FF
:100BBA000030A1000030A00027088039A8002808CA
:100BCA00AD062735B200A61FEB2DEC2DED2D321404
:100BDA0032080319F12DF22D012E320A031DF62DCA
:100BEA00F72DFF2D0030A7000030A6000030A50029
:100BFA000030A400A617092E0030A7000030A60076
:100C0A000030A5000030A400320803190D2E0E2E64
:100C1A00132E3308031D122E132E1C2E0030A30090
:100C2A000030A2000030A1000030A000F42F2008FC
:100C3A00F00026088C313D24853171082000B90066
:100C4A007008B8003808A800A901AA01AB012B084E
:100C5A00B1002A08B0002908AF002808AE003908F8
:100C6A00A800A901AA01AB012B08B7002A08B600FF
:100C7A002908B5002808B4002108F00025088C319D
:100C8A003D24853171082000B9007008B800380881
:100C9A00A800A901AA01AB012808AE072908AF3D9F
:100CAA002A08B03D2B08B13D3908A800A901AA01BC
:100CBA00AB012808B4072908B53D2A08B63D2B0818
:100CCA00B73D2208F00024088C313D248531710893
:100CDA002000B9007008B8003808A800A901AA01C4
:100CEA00AB012808AE072908AF3D2A08B03D2B08FA
:100CFA00B13D3908A800A901AA01AB012808B40727
:100D0A002908B53D2A08B63D2B08B73D0830AE354F
:100D1A00AF0DB00DB10D890B8C2E2108F0002408FF
:100D2A008C313D24853171082000B9007008B80063
:100D3A003808AE073908AF3D0030B03DB13D200854
:100D4A00F00025088C313D24853171082000B90056
:100D5A007008B8003808AE073908AF3D0030B03D1A
:100D6A00B13D0830AE35AF0DB00DB10D890BB72EC0
:100D7A002008F00024088C313D24853171082000B8
:100D8A00B9007008B8003808AE073908AF3D00301E
:100D9A00B03DB13D2108F00026088C313D24853153
:100DAA0071082000B9007008B8003808B40739087B
:100DBA00B53D0030B63DB73D2208F00025088C311C
:100DCA003D24853171082000B9007008B800380840
:100DDA00B4073908B53D0030B63DB73D2208F000EA
:100DEA0026088C313D24853171082000B90070082D
:100DFA00B8003808A8003908A900AA01AB010830D0
:100E0A00A835A90DAA0DAB0D890B052F2808B40723
:100E1A002908B53D2A08B63D2B08B73D2E08A8007B
:100E2A002F08A9003008AA003108AB001830AB36E9
:100E3A00AA0CA90CA80C890B1C2F2808B40729088E
:100E4A00B53D2A08B63D2B08B73D0830AE35AF0D83
:100E5A00B00DB10D890B2B2F33083207A800A90159
:100E6A00A90D2808823EB800FF30293DB900542F49
:100E7A000130B435B50DB60DB70D890B3E2FB11F34
:100E8A00472F482F492F34140130AE35AF0DB00D1E
:100E9A00B10D890B4A2FFF30B807FF30B93DB61F95
:100EAA00572F582F3D2FB201B11F5C2F5D2F792F7D
:100EBA00FF302E05A800FF302F05A900FF303005AE
:100ECA00AA007F303105AB002B082A042904280424
:100EDA000319702F712F742FB201B20A792F341CA3
:100EEA00772F782F792F712F320803197D2F7E2FB4
:100EFA00A62F0130B4070030B53D0030B63D0030B2
:100F0A00B73D371C892F8A2FA62F3408A800350829
:100F1A00A9003608AA003708AB000130AC00AB378D
:100F2A00AA0CA90CA80CAC0B942F2B08B7002A0802
:100F3A00B6002908B5002808B4000130B807003007
:100F4A00B93D3908803AA80080302802031DAF2F26
:100F5A00FF303802031CB22FB32FBD2F7F30200081
:100F6A00B7008030B6000030B5000030B400E82F7A
:100F7A0020003908803AA80080302802031DC72FB4
:100F8A00013038020318CA2FCB2FD62F0030200089
:100F9A00B7000030B6000030B5000030B400AD0133
:100FAA00E82F20003808B300FF30B405FF30B5053C
:100FBA007F30B6050030B705331CE42FE52FE62F46
:100FCA00B6173336B7002D08A8002808B704370823
:100FDA00A3003608A2003508A1003408A0000800C2
:100FEA00BB308400003085000E308B31C823873136
:060FFA0020008E31E22E02
:10179000640080010131890BC92B003421008C12B7
:1017A00020000C128C12003220000C160032200097
:1017B0000C12080021008C1220000C128C16003232
:1017C00020000C16003220000C12080021008C12A0
:1017D00020000C128C16003220000C160032200063
:1017E0008C12003220000C12080021008C12200004
:1017F0000C128C12003220000C16003220008C16C5
:10180000003220000C12080021000C108C14200063
:101810000C108C1070302100990023008C012200E4
:101820009D131D1123001E159F15CF309B001E1206
:101830009D170800F10121008C1620008C160C1653
:10184000362C710A031D252C262C322C8B31F523C6
:101850008C310330F0009830890B2C2CF00B2C2CA1
:1018600001303C2C0130F0007008F1078C1A392C43
:101870003A2C212C0C1200300800F800F401F5017C
:101880007008F200F3017208F6007308F700781C84
:101890004A2C4B2C4F2C7608F4077708F53D013085
:1018A000F635F70D890B502C0310F80C7808031D42
:1018B0005A2C5B2C472C7508F1007408F0000800C6
:1018C00021008C1220000C12F201F301F01F692C90
:1018D0006A2C6D2C20008C166F2C20008C1201308D
:1018E000F035F10D890B702C0C16003200322000FF
:1018F0000C12003200320130F2070030F33D0030AC
:101900007302083003197202031C872C882C662C82
:101910000800F30121008C16F40120000C120032A3
:1019200020000C160C1E952C962C922C0310F30DF7
:101930008C1E9B2C9C2CA02C0130F2007208F3070B
:101940000130F2007208F40708307402031CA92C5D
:10195000AA2C8D2C0330F2009830890BAD2CF20BA1
:10196000AD2C70087104031DB62CB72CBB2C8B3129
:10197000DA238C31BE2C8B31CE238C3173080800D6
:1019800020002603031DC52CC62CD42C0A30F000E1
:101990000030F1002508F3002408F2008D310925FC
:1019A0008C317008303E082D02302606031DD92CDC
:1019B000DA2CF32C0A30F7000030F8002508F30089
:1019C0002408F2006430F0000030F1008D31092568
:1019D0008C317108FA007008F9008D315C258C316A
:1019E0007708303E082D03302606031DF82CF92C0D
:1019F000072D6430F7000030F8002508FA002408AD
:101A0000F9008D315C258C317708303E082D3F3050
:101A10000800F601F31F0D2D0E2D152DF209F30907
:101A2000F20A0319F30AF601F60AF11F182D192D0F
:101A30001E2DF009F109F00A0319F10A700871046A
:101A40000319232D242D4D2DF501F50A302D0130DC
:101A5000F035F10D890B282D0130F4007408F507DD
:101A6000F11F332D342D272D71087302031D3A2DDC
:101A700070087202031C3D2D3E2D422D7008F202AB
:101A80007108F33B0130F136F00C890B432D013026
:101A9000F502031D4C2D4D2D342D76080319512DC3
:101AA000522D572DF209F309F20A0319F30A7308AC
:101AB000F1007208F00008002000A101F81F612D5C
:101AC000622D692DF709F809F70A0319F80AA1012F
:101AD000A10AFA1F6C2D6D2D762DF909FA09F90A64
:101AE0000319FA0A0130FB007B08A106A201A30139
:101AF0007708780403197D2D7E2DAD2DA001A00A55
:101B00008A2D0130F735F80D890B822D0130FB004D
:101B10007B08A007F81F8D2D8E2D812D0130A23559
:101B2000A30D890B8F2D78087A02031D992D770854
:101B30007902031C9C2D9D2DA22D7708F9027808AF
:101B4000FA3B22140130F836F70C890BA32D013033
:101B5000A002031DAC2DAD2D8E2D21080319B12D32
:101B6000B22DB72DA209A309A20A0319A30A2308BB
:101B7000F8002208F7000800031020006A0D6B0D22
:101B80002100A1002108031DC62DC72DD12D003035
:101B90002000EB000030EA000030E9000030E800EF
:101BA000372E20006808EC006908ED006A08EE0096
:101BB0006B08EF001F30EF36EE0CED0CEC0C890BD0
:101BC000DB2D6C082100A0002000EA17FF30E8059B
:101BD000FF30E905FF30EA050030EB0596302100C3
:101BE000A102A11FF42DF52D0F2E2108803A973E5A
:101BF0000318FB2DFC2DFD2DC72D01302000EB36E9
:101C0000EA0CE90CE80C890BFE2D0130EC006C08A5
:101C10002100A107031D0D2E0E2EFD2D262E203096
:101C20002102031C142E152E212EC72D0130200059
:101C3000E835E90DEA0DEB0D890B172E0130210077
:101C4000A1022108031D252E262E162E2008031979
:101C50002A2E2B2E372E2000E809E909EA09EB0984
:101C6000E80A0319E90A0319EA0A0319EB0A08004A
:101C7000F800780803193D2E3E2E522EF31F412EF8
:101C8000422E522E7009FA007109FB007209FC0005
:101C90007309FD00FA0A0319FB0A0319FC0A031968
:101CA000FD0A5A2E7308FD007208FC007108FB0043
:101CB0007008FA007308720471047004031D612E29
:101CC000622E6B2E0030F3000030F2000030F10085
:101CD0000030F000E12E9630F900792E0130F4004A
:101CE0007408F9070130FD36FC0CFB0CFA0C890B6B
:101CF000732EFE307D05031D7E2E7F2E6E2E932EBD
:101D00000130F4007408F9070130FA070030FB3D98
:101D10000030FC3D0030FD3D0130FD36FC0CFB0C7D
:101D2000FA0C890B8D2EFF307D05031D982E992E00
:101D3000802EA32E0130F9020130FA35FB0DFC0D87
:101D4000FD0D890B9D2EFC1BA62EA72EAD2E02305D
:101D500079020318AC2EAD2E9A2E7918B02EB12E22
:101D6000B92EFF30FA05FF30FB057F30FC05FF3050
:101D7000FD050310F90C7908F400F501F601F701EF
:101D80001830F435F50DF60DF70D890BC12E7408DA
:101D9000FA047508FB047608FC047708FD0478084B
:101DA0000319D32ED42ED92EF31FD72ED82ED92EE9
:101DB000FD177D08F3007C08F2007B08F1007A082B
:101DC000F00008008C3104248E31803105208E31E2
:101DD00023009E161A302100B900F830890BEE2E30
:101DE000B90BEE2E00002C30F4000D30F5008830D9
:101DF00080310C208E312F302100B900BF30890B8B
:101E0000FF2EB90BFF2E00328830803173208E31C7
:101E100003302100BA000830B9007730890B0E2F4B
:101E2000B90B0E2FBA0B0E2FE83021003F060330FE
:101E300003194006031D1D2F1E2F222FE730BF0060
:101E40000330C00042082000A50021004108200006
:101E5000A400A601A60A8C31C0248E312100C7003F
:101E600042082000A500210041082000A400023003
:101E7000A6008C31C0248E312100C8004208200009
:101E8000A500210041082000A4000330A6008C31E9
:101E9000C0248E312100C60040082000A50021008A
:101EA0003F082000A400A601A60A8C31C0248E3170
:101EB0002100C40040082000A50021003F082000A8
:101EC000A4000230A6008C31C0248E312100C50050
:101ED00040082000A50021003F082000A400033096
:101EE000A6008C31C0248E312100C3000D302100AA
:101EF000B900FB30890B7A2FB90B7A2F0032210001
:101F0000460823009A009E1C862F872F832F2100CE
:101F1000480823009A009E1C8E2F8F2F8B2F2E3067
:101F20009A009E1C942F952F912F21004708230083
:101F30009A009E1C9C2F9D2F992FA1309A009E1CC9
:101F4000A22FA32F9F2FE6309A009E1CA82FA92F07
:101F5000A52F20309A009E1CAE2FAF2FAB2F203024
:101F60009A009E1CB42FB52FB12F210043082300E7
:101F70009A009E1CBC2FBD2FB92F210045082300BD
:101F80009A009E1CC42FC52FC12F2E309A009E1C74
:101F9000CA2FCB2FC72F2100440823009A009E1C74
:101FA000D22FD32FCF2F25309A009E1CD82FD92F78
:101FB000D52F20309A009E1CDE2FDF2FDB2F0D3017
:101FC0009A009E1CE42FE52FE12F0D302100B9006F
:101FD000FB30890BE92FB90BE92F00322100C80132
:101FE000C701C601C501C401C301C101C201BF01CE
:101FF000C001BD01BE01BB01BC01F32E803102282E
:020000040001F9
:04000E00E439FF1EB4
:00000001FF
